{
  "_format": "hh-sol-artifact-1",
  "contractName": "CrossChainToken",
  "sourceName": "contracts/CrossChainToken.sol",
  "abi": [
    {
      "inputs": [],
      "stateMutability": "nonpayable",
      "type": "constructor"
    },
    {
      "anonymous": false,
      "inputs": [
        {
          "indexed": true,
          "internalType": "address",
          "name": "owner",
          "type": "address"
        },
        {
          "indexed": true,
          "internalType": "address",
          "name": "spender",
          "type": "address"
        },
        {
          "indexed": false,
          "internalType": "uint256",
          "name": "value",
          "type": "uint256"
        }
      ],
      "name": "Approval",
      "type": "event"
    },
    {
      "anonymous": false,
      "inputs": [
        {
          "indexed": true,
          "internalType": "address",
          "name": "from",
          "type": "address"
        },
        {
          "indexed": true,
          "internalType": "address",
          "name": "to",
          "type": "address"
        },
        {
          "indexed": false,
          "internalType": "uint256",
          "name": "amount",
          "type": "uint256"
        }
      ],
      "name": "ReceiveOutside",
      "type": "event"
    },
    {
      "anonymous": false,
      "inputs": [
        {
          "indexed": true,
          "internalType": "address",
          "name": "from",
          "type": "address"
        },
        {
          "indexed": true,
          "internalType": "address",
          "name": "to",
          "type": "address"
        },
        {
          "indexed": false,
          "internalType": "uint256",
          "name": "value",
          "type": "uint256"
        }
      ],
      "name": "Transfer",
      "type": "event"
    },
    {
      "anonymous": false,
      "inputs": [
        {
          "indexed": true,
          "internalType": "address",
          "name": "from",
          "type": "address"
        },
        {
          "indexed": true,
          "internalType": "address",
          "name": "to",
          "type": "address"
        },
        {
          "indexed": false,
          "internalType": "uint256",
          "name": "amount",
          "type": "uint256"
        }
      ],
      "name": "TransferOutside",
      "type": "event"
    },
    {
      "inputs": [
        {
          "internalType": "address",
          "name": "owner",
          "type": "address"
        },
        {
          "internalType": "address",
          "name": "spender",
          "type": "address"
        }
      ],
      "name": "allowance",
      "outputs": [
        {
          "internalType": "uint256",
          "name": "",
          "type": "uint256"
        }
      ],
      "stateMutability": "view",
      "type": "function"
    },
    {
      "inputs": [
        {
          "internalType": "address",
          "name": "spender",
          "type": "address"
        },
        {
          "internalType": "uint256",
          "name": "amount",
          "type": "uint256"
        }
      ],
      "name": "approve",
      "outputs": [
        {
          "internalType": "bool",
          "name": "",
          "type": "bool"
        }
      ],
      "stateMutability": "nonpayable",
      "type": "function"
    },
    {
      "inputs": [
        {
          "internalType": "address",
          "name": "account",
          "type": "address"
        }
      ],
      "name": "balanceOf",
      "outputs": [
        {
          "internalType": "uint256",
          "name": "",
          "type": "uint256"
        }
      ],
      "stateMutability": "view",
      "type": "function"
    },
    {
      "inputs": [],
      "name": "decimals",
      "outputs": [
        {
          "internalType": "uint8",
          "name": "",
          "type": "uint8"
        }
      ],
      "stateMutability": "view",
      "type": "function"
    },
    {
      "inputs": [
        {
          "internalType": "address",
          "name": "spender",
          "type": "address"
        },
        {
          "internalType": "uint256",
          "name": "subtractedValue",
          "type": "uint256"
        }
      ],
      "name": "decreaseAllowance",
      "outputs": [
        {
          "internalType": "bool",
          "name": "",
          "type": "bool"
        }
      ],
      "stateMutability": "nonpayable",
      "type": "function"
    },
    {
      "inputs": [
        {
          "internalType": "address",
          "name": "spender",
          "type": "address"
        },
        {
          "internalType": "uint256",
          "name": "addedValue",
          "type": "uint256"
        }
      ],
      "name": "increaseAllowance",
      "outputs": [
        {
          "internalType": "bool",
          "name": "",
          "type": "bool"
        }
      ],
      "stateMutability": "nonpayable",
      "type": "function"
    },
    {
      "inputs": [],
      "name": "name",
      "outputs": [
        {
          "internalType": "string",
          "name": "",
          "type": "string"
        }
      ],
      "stateMutability": "view",
      "type": "function"
    },
    {
      "inputs": [
        {
          "internalType": "address",
          "name": "from",
          "type": "address"
        },
        {
          "internalType": "address",
          "name": "to",
          "type": "address"
        },
        {
          "internalType": "uint256",
          "name": "amount",
          "type": "uint256"
        }
      ],
      "name": "receiveOutside",
      "outputs": [],
      "stateMutability": "nonpayable",
      "type": "function"
    },
    {
      "inputs": [],
      "name": "symbol",
      "outputs": [
        {
          "internalType": "string",
          "name": "",
          "type": "string"
        }
      ],
      "stateMutability": "view",
      "type": "function"
    },
    {
      "inputs": [],
      "name": "totalSupply",
      "outputs": [
        {
          "internalType": "uint256",
          "name": "",
          "type": "uint256"
        }
      ],
      "stateMutability": "view",
      "type": "function"
    },
    {
      "inputs": [
        {
          "internalType": "address",
          "name": "to",
          "type": "address"
        },
        {
          "internalType": "uint256",
          "name": "amount",
          "type": "uint256"
        }
      ],
      "name": "transfer",
      "outputs": [
        {
          "internalType": "bool",
          "name": "",
          "type": "bool"
        }
      ],
      "stateMutability": "nonpayable",
      "type": "function"
    },
    {
      "inputs": [
        {
          "internalType": "address",
          "name": "from",
          "type": "address"
        },
        {
          "internalType": "address",
          "name": "to",
          "type": "address"
        },
        {
          "internalType": "uint256",
          "name": "amount",
          "type": "uint256"
        }
      ],
      "name": "transferFrom",
      "outputs": [
        {
          "internalType": "bool",
          "name": "",
          "type": "bool"
        }
      ],
      "stateMutability": "nonpayable",
      "type": "function"
    },
    {
      "inputs": [
        {
          "internalType": "address",
          "name": "to",
          "type": "address"
        },
        {
          "internalType": "uint256",
          "name": "amount",
          "type": "uint256"
        }
      ],
      "name": "transferOutside",
      "outputs": [],
      "stateMutability": "nonpayable",
      "type": "function"
    },
    {
      "inputs": [],
      "name": "transferOutsideSelf",
      "outputs": [],
      "stateMutability": "nonpayable",
      "type": "function"
    }
  ],
  "bytecode": "0x60806040523480156200001157600080fd5b506040518060400160405280600f81526020017f43726f7373436861696e546f6b656e00000000000000000000000000000000008152506040518060400160405280600381526020017f4343540000000000000000000000000000000000000000000000000000000000815250816003908051906020019062000096929190620000f9565b508060049080519060200190620000af929190620000f9565b50505033600560006101000a81548173ffffffffffffffffffffffffffffffffffffffff021916908373ffffffffffffffffffffffffffffffffffffffff1602179055506200020e565b8280546200010790620001a9565b90600052602060002090601f0160209004810192826200012b576000855562000177565b82601f106200014657805160ff191683800117855562000177565b8280016001018555821562000177579182015b828111156200017657825182559160200191906001019062000159565b5b5090506200018691906200018a565b5090565b5b80821115620001a55760008160009055506001016200018b565b5090565b60006002820490506001821680620001c257607f821691505b60208210811415620001d957620001d8620001df565b5b50919050565b7f4e487b7100000000000000000000000000000000000000000000000000000000600052602260045260246000fd5b611a9c806200021e6000396000f3fe608060405234801561001057600080fd5b50600436106100ea5760003560e01c8063445dfec41161008c578063a457c2d711610066578063a457c2d71461024d578063a9059cbb1461027d578063b5e9b09b146102ad578063dd62ed3e146102c9576100ea565b8063445dfec4146101f557806370a08231146101ff57806395d89b411461022f576100ea565b806323b872dd116100c857806323b872dd1461015b578063313ce5671461018b57806336f747b9146101a957806339509351146101c5576100ea565b806306fdde03146100ef578063095ea7b31461010d57806318160ddd1461013d575b600080fd5b6100f76102f9565b60405161010491906113be565b60405180910390f35b61012760048036038101906101229190611180565b61038b565b60405161013491906113a3565b60405180910390f35b6101456103ae565b6040516101529190611540565b60405180910390f35b61017560048036038101906101709190611131565b6103b8565b60405161018291906113a3565b60405180910390f35b6101936103e7565b6040516101a0919061155b565b60405180910390f35b6101c360048036038101906101be9190611180565b6103f0565b005b6101df60048036038101906101da9190611180565b610463565b6040516101ec91906113a3565b60405180910390f35b6101fd61050d565b005b610219600480360381019061021491906110cc565b61050f565b6040516102269190611540565b60405180910390f35b610237610557565b60405161024491906113be565b60405180910390f35b61026760048036038101906102629190611180565b6105e9565b60405161027491906113a3565b60405180910390f35b61029760048036038101906102929190611180565b6106d3565b6040516102a491906113a3565b60405180910390f35b6102c760048036038101906102c29190611131565b6106f6565b005b6102e360048036038101906102de91906110f5565b6107fa565b6040516102f09190611540565b60405180910390f35b606060038054610308906116a4565b80601f0160208091040260200160405190810160405280929190818152602001828054610334906116a4565b80156103815780601f1061035657610100808354040283529160200191610381565b820191906000526020600020905b81548152906001019060200180831161036457829003601f168201915b5050505050905090565b600080610396610881565b90506103a3818585610889565b600191505092915050565b6000600254905090565b6000806103c3610881565b90506103d0858285610a54565b6103db858585610ae0565b60019150509392505050565b60006012905090565b6103fa3382610d61565b8173ffffffffffffffffffffffffffffffffffffffff163373ffffffffffffffffffffffffffffffffffffffff167ff1d22cca26519bb726eee7dbf7eb90015cec103fa80840018211bea697461629836040516104579190611540565b60405180910390a35050565b60008061046e610881565b9050610502818585600160008673ffffffffffffffffffffffffffffffffffffffff1673ffffffffffffffffffffffffffffffffffffffff16815260200190815260200160002060008973ffffffffffffffffffffffffffffffffffffffff1673ffffffffffffffffffffffffffffffffffffffff168152602001908152602001600020546104fd9190611592565b610889565b600191505092915050565b565b60008060008373ffffffffffffffffffffffffffffffffffffffff1673ffffffffffffffffffffffffffffffffffffffff168152602001908152602001600020549050919050565b606060048054610566906116a4565b80601f0160208091040260200160405190810160405280929190818152602001828054610592906116a4565b80156105df5780601f106105b4576101008083540402835291602001916105df565b820191906000526020600020905b8154815290600101906020018083116105c257829003601f168201915b5050505050905090565b6000806105f4610881565b90506000600160008373ffffffffffffffffffffffffffffffffffffffff1673ffffffffffffffffffffffffffffffffffffffff16815260200190815260200160002060008673ffffffffffffffffffffffffffffffffffffffff1673ffffffffffffffffffffffffffffffffffffffff168152602001908152602001600020549050838110156106ba576040517f08c379a00000000000000000000000000000000000000000000000000000000081526004016106b190611500565b60405180910390fd5b6106c78286868403610889565b60019250505092915050565b6000806106de610881565b90506106eb818585610ae0565b600191505092915050565b600560009054906101000a900473ffffffffffffffffffffffffffffffffffffffff1673ffffffffffffffffffffffffffffffffffffffff163373ffffffffffffffffffffffffffffffffffffffff1614610786576040517f08c379a000000000000000000000000000000000000000000000000000000000815260040161077d906114e0565b60405180910390fd5b6107908282610f38565b8173ffffffffffffffffffffffffffffffffffffffff168373ffffffffffffffffffffffffffffffffffffffff167f7832573449d2d5bc4bd06e91447e9b20ad7bf2066d60553ff43a4c0df4efdca4836040516107ed9190611540565b60405180910390a3505050565b6000600160008473ffffffffffffffffffffffffffffffffffffffff1673ffffffffffffffffffffffffffffffffffffffff16815260200190815260200160002060008373ffffffffffffffffffffffffffffffffffffffff1673ffffffffffffffffffffffffffffffffffffffff16815260200190815260200160002054905092915050565b600033905090565b600073ffffffffffffffffffffffffffffffffffffffff168373ffffffffffffffffffffffffffffffffffffffff1614156108f9576040517f08c379a00000000000000000000000000000000000000000000000000000000081526004016108f0906114c0565b60405180910390fd5b600073ffffffffffffffffffffffffffffffffffffffff168273ffffffffffffffffffffffffffffffffffffffff161415610969576040517f08c379a000000000000000000000000000000000000000000000000000000000815260040161096090611420565b60405180910390fd5b80600160008573ffffffffffffffffffffffffffffffffffffffff1673ffffffffffffffffffffffffffffffffffffffff16815260200190815260200160002060008473ffffffffffffffffffffffffffffffffffffffff1673ffffffffffffffffffffffffffffffffffffffff168152602001908152602001600020819055508173ffffffffffffffffffffffffffffffffffffffff168373ffffffffffffffffffffffffffffffffffffffff167f8c5be1e5ebec7d5bd14f71427d1e84f3dd0314c0f7b2291e5b200ac8c7c3b92583604051610a479190611540565b60405180910390a3505050565b6000610a6084846107fa565b90507fffffffffffffffffffffffffffffffffffffffffffffffffffffffffffffffff8114610ada5781811015610acc576040517f08c379a0000000000000000000000000000000000000000000000000000000008152600401610ac390611440565b60405180910390fd5b610ad98484848403610889565b5b50505050565b600073ffffffffffffffffffffffffffffffffffffffff168373ffffffffffffffffffffffffffffffffffffffff161415610b50576040517f08c379a0000000000000000000000000000000000000000000000000000000008152600401610b47906114a0565b60405180910390fd5b600073ffffffffffffffffffffffffffffffffffffffff168273ffffffffffffffffffffffffffffffffffffffff161415610bc0576040517f08c379a0000000000000000000000000000000000000000000000000000000008152600401610bb7906113e0565b60405180910390fd5b610bcb838383611098565b60008060008573ffffffffffffffffffffffffffffffffffffffff1673ffffffffffffffffffffffffffffffffffffffff16815260200190815260200160002054905081811015610c51576040517f08c379a0000000000000000000000000000000000000000000000000000000008152600401610c4890611460565b60405180910390fd5b8181036000808673ffffffffffffffffffffffffffffffffffffffff1673ffffffffffffffffffffffffffffffffffffffff16815260200190815260200160002081905550816000808573ffffffffffffffffffffffffffffffffffffffff1673ffffffffffffffffffffffffffffffffffffffff1681526020019081526020016000206000828254610ce49190611592565b925050819055508273ffffffffffffffffffffffffffffffffffffffff168473ffffffffffffffffffffffffffffffffffffffff167fddf252ad1be2c89b69c2b068fc378daa952ba7f163c4a11628f55a4df523b3ef84604051610d489190611540565b60405180910390a3610d5b84848461109d565b50505050565b600073ffffffffffffffffffffffffffffffffffffffff168273ffffffffffffffffffffffffffffffffffffffff161415610dd1576040517f08c379a0000000000000000000000000000000000000000000000000000000008152600401610dc890611480565b60405180910390fd5b610ddd82600083611098565b60008060008473ffffffffffffffffffffffffffffffffffffffff1673ffffffffffffffffffffffffffffffffffffffff16815260200190815260200160002054905081811015610e63576040517f08c379a0000000000000000000000000000000000000000000000000000000008152600401610e5a90611400565b60405180910390fd5b8181036000808573ffffffffffffffffffffffffffffffffffffffff1673ffffffffffffffffffffffffffffffffffffffff168152602001908152602001600020819055508160026000828254610eba91906115e8565b92505081905550600073ffffffffffffffffffffffffffffffffffffffff168373ffffffffffffffffffffffffffffffffffffffff167fddf252ad1be2c89b69c2b068fc378daa952ba7f163c4a11628f55a4df523b3ef84604051610f1f9190611540565b60405180910390a3610f338360008461109d565b505050565b600073ffffffffffffffffffffffffffffffffffffffff168273ffffffffffffffffffffffffffffffffffffffff161415610fa8576040517f08c379a0000000000000000000000000000000000000000000000000000000008152600401610f9f90611520565b60405180910390fd5b610fb460008383611098565b8060026000828254610fc69190611592565b92505081905550806000808473ffffffffffffffffffffffffffffffffffffffff1673ffffffffffffffffffffffffffffffffffffffff168152602001908152602001600020600082825461101b9190611592565b925050819055508173ffffffffffffffffffffffffffffffffffffffff16600073ffffffffffffffffffffffffffffffffffffffff167fddf252ad1be2c89b69c2b068fc378daa952ba7f163c4a11628f55a4df523b3ef836040516110809190611540565b60405180910390a36110946000838361109d565b5050565b505050565b505050565b6000813590506110b181611a38565b92915050565b6000813590506110c681611a4f565b92915050565b6000602082840312156110de57600080fd5b60006110ec848285016110a2565b91505092915050565b6000806040838503121561110857600080fd5b6000611116858286016110a2565b9250506020611127858286016110a2565b9150509250929050565b60008060006060848603121561114657600080fd5b6000611154868287016110a2565b9350506020611165868287016110a2565b9250506040611176868287016110b7565b9150509250925092565b6000806040838503121561119357600080fd5b60006111a1858286016110a2565b92505060206111b2858286016110b7565b9150509250929050565b6111c58161162e565b82525050565b60006111d682611576565b6111e08185611581565b93506111f0818560208601611671565b6111f981611734565b840191505092915050565b6000611211602383611581565b915061121c82611745565b604082019050919050565b6000611234602283611581565b915061123f82611794565b604082019050919050565b6000611257602283611581565b9150611262826117e3565b604082019050919050565b600061127a601d83611581565b915061128582611832565b602082019050919050565b600061129d602683611581565b91506112a88261185b565b604082019050919050565b60006112c0602183611581565b91506112cb826118aa565b604082019050919050565b60006112e3602583611581565b91506112ee826118f9565b604082019050919050565b6000611306602483611581565b915061131182611948565b604082019050919050565b6000611329600983611581565b915061133482611997565b602082019050919050565b600061134c602583611581565b9150611357826119c0565b604082019050919050565b600061136f601f83611581565b915061137a82611a0f565b602082019050919050565b61138e8161165a565b82525050565b61139d81611664565b82525050565b60006020820190506113b860008301846111bc565b92915050565b600060208201905081810360008301526113d881846111cb565b905092915050565b600060208201905081810360008301526113f981611204565b9050919050565b6000602082019050818103600083015261141981611227565b9050919050565b600060208201905081810360008301526114398161124a565b9050919050565b600060208201905081810360008301526114598161126d565b9050919050565b6000602082019050818103600083015261147981611290565b9050919050565b60006020820190508181036000830152611499816112b3565b9050919050565b600060208201905081810360008301526114b9816112d6565b9050919050565b600060208201905081810360008301526114d9816112f9565b9050919050565b600060208201905081810360008301526114f98161131c565b9050919050565b600060208201905081810360008301526115198161133f565b9050919050565b6000602082019050818103600083015261153981611362565b9050919050565b60006020820190506115556000830184611385565b92915050565b60006020820190506115706000830184611394565b92915050565b600081519050919050565b600082825260208201905092915050565b600061159d8261165a565b91506115a88361165a565b9250827fffffffffffffffffffffffffffffffffffffffffffffffffffffffffffffffff038211156115dd576115dc6116d6565b5b828201905092915050565b60006115f38261165a565b91506115fe8361165a565b925082821015611611576116106116d6565b5b828203905092915050565b60006116278261163a565b9050919050565b60008115159050919050565b600073ffffffffffffffffffffffffffffffffffffffff82169050919050565b6000819050919050565b600060ff82169050919050565b60005b8381101561168f578082015181840152602081019050611674565b8381111561169e576000848401525b50505050565b600060028204905060018216806116bc57607f821691505b602082108114156116d0576116cf611705565b5b50919050565b7f4e487b7100000000000000000000000000000000000000000000000000000000600052601160045260246000fd5b7f4e487b7100000000000000000000000000000000000000000000000000000000600052602260045260246000fd5b6000601f19601f8301169050919050565b7f45524332303a207472616e7366657220746f20746865207a65726f206164647260008201527f6573730000000000000000000000000000000000000000000000000000000000602082015250565b7f45524332303a206275726e20616d6f756e7420657863656564732062616c616e60008201527f6365000000000000000000000000000000000000000000000000000000000000602082015250565b7f45524332303a20617070726f766520746f20746865207a65726f20616464726560008201527f7373000000000000000000000000000000000000000000000000000000000000602082015250565b7f45524332303a20696e73756666696369656e7420616c6c6f77616e6365000000600082015250565b7f45524332303a207472616e7366657220616d6f756e742065786365656473206260008201527f616c616e63650000000000000000000000000000000000000000000000000000602082015250565b7f45524332303a206275726e2066726f6d20746865207a65726f2061646472657360008201527f7300000000000000000000000000000000000000000000000000000000000000602082015250565b7f45524332303a207472616e736665722066726f6d20746865207a65726f20616460008201527f6472657373000000000000000000000000000000000000000000000000000000602082015250565b7f45524332303a20617070726f76652066726f6d20746865207a65726f2061646460008201527f7265737300000000000000000000000000000000000000000000000000000000602082015250565b7f6e6f742061646d696e0000000000000000000000000000000000000000000000600082015250565b7f45524332303a2064656372656173656420616c6c6f77616e63652062656c6f7760008201527f207a65726f000000000000000000000000000000000000000000000000000000602082015250565b7f45524332303a206d696e7420746f20746865207a65726f206164647265737300600082015250565b611a418161161c565b8114611a4c57600080fd5b50565b611a588161165a565b8114611a6357600080fd5b5056fea264697066735822122020ba613a6564b888188d3dd2c9a1f4adf027a0dce3dc92af51c5ff32002af41864736f6c63430008030033",
  "linkReferences": {},
  "deployedLinkReferences": {}
}